{
  "_format": "hh-sol-artifact-1",
  "contractName": "StealthAddress",
  "sourceName": "contracts/StealthAddressContract.sol",
  "abi": [
    {
      "inputs": [],
      "name": "StealthAddress__BadBaseAddress",
      "type": "error"
    },
    {
      "inputs": [],
      "name": "StealthAddress__BadPublicKey",
      "type": "error"
    },
    {
      "inputs": [],
      "name": "StealthAddress__FailedRecievingToken",
      "type": "error"
    },
    {
      "inputs": [],
      "name": "StealthAddress__FailedSendingEth",
      "type": "error"
    },
    {
      "inputs": [],
      "name": "StealthAddress__InsufficientAllowence",
      "type": "error"
    },
    {
      "inputs": [
        {
          "internalType": "address",
          "name": "baseAddress",
          "type": "address"
        }
      ],
      "name": "findMetaAddress",
      "outputs": [
        {
          "components": [
            {
              "internalType": "bytes",
              "name": "publicSpendingKey",
              "type": "bytes"
            },
            {
              "internalType": "bytes",
              "name": "publicViewingKey",
              "type": "bytes"
            }
          ],
          "internalType": "struct StealthAddress.MetaAddress",
          "name": "",
          "type": "tuple"
        }
      ],
      "stateMutability": "view",
      "type": "function"
    },
    {
      "inputs": [],
      "name": "getAllEphPubKeys",
      "outputs": [
        {
          "internalType": "bytes[]",
          "name": "",
          "type": "bytes[]"
        }
      ],
      "stateMutability": "view",
      "type": "function"
    },
    {
      "inputs": [
        {
          "components": [
            {
              "internalType": "bytes",
              "name": "publicSpendingKey",
              "type": "bytes"
            },
            {
              "internalType": "bytes",
              "name": "publicViewingKey",
              "type": "bytes"
            }
          ],
          "internalType": "struct StealthAddress.MetaAddress",
          "name": "metaAddress",
          "type": "tuple"
        }
      ],
      "name": "registerMetaAddress",
      "outputs": [],
      "stateMutability": "nonpayable",
      "type": "function"
    },
    {
      "inputs": [
        {
          "internalType": "bytes",
          "name": "ephPubKey",
          "type": "bytes"
        },
        {
          "internalType": "address payable",
          "name": "stealthAddr",
          "type": "address"
        }
      ],
      "name": "sendEthToStealthAddr",
      "outputs": [],
      "stateMutability": "payable",
      "type": "function"
    },
    {
      "inputs": [
        {
          "internalType": "bytes",
          "name": "ephPubKey",
          "type": "bytes"
        },
        {
          "internalType": "address",
          "name": "stealthAddr",
          "type": "address"
        },
        {
          "internalType": "address",
          "name": "token",
          "type": "address"
        },
        {
          "internalType": "uint256",
          "name": "amount",
          "type": "uint256"
        }
      ],
      "name": "sendTokenToStealthAddr",
      "outputs": [],
      "stateMutability": "nonpayable",
      "type": "function"
    }
  ],
  "bytecode": "0x6080604052348015600f57600080fd5b506117998061001f6000396000f3fe60806040526004361061004a5760003560e01c80638f81077e1461004f57806397518b8e14610078578063ce1644a5146100a3578063ce75d17c146100bf578063e3ffaeb4146100e8575b600080fd5b34801561005b57600080fd5b5061007660048036038101906100719190610c9c565b610125565b005b34801561008457600080fd5b5061008d610349565b60405161009a9190610e76565b60405180910390f35b6100bd60048036038101906100b89190610ed6565b61047a565b005b3480156100cb57600080fd5b506100e660048036038101906100e19190610f5a565b610550565b005b3480156100f457600080fd5b5061010f600480360381019061010a9190610fa3565b6105f1565b60405161011c9190611014565b60405180910390f35b6000829050818173ffffffffffffffffffffffffffffffffffffffff1663dd62ed3e33306040518363ffffffff1660e01b8152600401610166929190611045565b602060405180830381865afa158015610183573d6000803e3d6000fd5b505050506040513d601f19601f820116820180604052508101906101a79190611083565b10156101df576040517f4d9fd08d00000000000000000000000000000000000000000000000000000000815260040160405180910390fd5b8073ffffffffffffffffffffffffffffffffffffffff166323b872dd3330856040518463ffffffff1660e01b815260040161021c939291906110bf565b6020604051808303816000875af115801561023b573d6000803e3d6000fd5b505050506040513d601f19601f8201168201806040525081019061025f919061112e565b610295576040517fe9d6633800000000000000000000000000000000000000000000000000000000815260040160405180910390fd5b8073ffffffffffffffffffffffffffffffffffffffff1663a9059cbb85846040518363ffffffff1660e01b81526004016102d092919061115b565b6020604051808303816000875af11580156102ef573d6000803e3d6000fd5b505050506040513d601f19601f82011682018060405250810190610313919061112e565b5061031e8686610953565b610341604051806060016040528060248152602001611740602491398386610a13565b505050505050565b60606000805467ffffffffffffffff81111561036857610367611184565b5b60405190808252806020026020018201604052801561039b57816020015b60608152602001906001900390816103865790505b50905060005b600054811015610472576001600082815260200190815260200160002080546103c9906111e2565b80601f01602080910402602001604051908101604052809291908181526020018280546103f5906111e2565b80156104425780601f1061041757610100808354040283529160200191610442565b820191906000526020600020905b81548152906001019060200180831161042557829003601f168201915b505050505082828151811061045a57610459611213565b5b602002602001018190525080806001019150506103a1565b508091505090565b60008173ffffffffffffffffffffffffffffffffffffffff16346040516104a090611273565b60006040518083038185875af1925050503d80600081146104dd576040519150601f19603f3d011682016040523d82523d6000602084013e6104e2565b606091505b505090508061051d576040517f8c5dddba00000000000000000000000000000000000000000000000000000000815260040160405180910390fd5b6105278484610953565b61054a60405180606001604052806021815260200161171f602191393484610a13565b50505050565b80600260003373ffffffffffffffffffffffffffffffffffffffff1673ffffffffffffffffffffffffffffffffffffffff168152602001908152602001600020818161059c91906115d7565b90505080600260003373ffffffffffffffffffffffffffffffffffffffff1673ffffffffffffffffffffffffffffffffffffffff16815260200190815260200160002081816105eb91906115d7565b90505050565b6105f9610b75565b6106cc600260008473ffffffffffffffffffffffffffffffffffffffff1673ffffffffffffffffffffffffffffffffffffffff1681526020019081526020016000206000018054610649906111e2565b80601f0160208091040260200160405190810160405280929190818152602001828054610675906111e2565b80156106c25780601f10610697576101008083540402835291602001916106c2565b820191906000526020600020905b8154815290600101906020018083116106a557829003601f168201915b5050505050610ab2565b80156107a757506107a6600260008473ffffffffffffffffffffffffffffffffffffffff1673ffffffffffffffffffffffffffffffffffffffff1681526020019081526020016000206001018054610723906111e2565b80601f016020809104026020016040519081016040528092919081815260200182805461074f906111e2565b801561079c5780601f106107715761010080835404028352916020019161079c565b820191906000526020600020905b81548152906001019060200180831161077f57829003601f168201915b5050505050610ab2565b5b156107de576040517f4669d6de00000000000000000000000000000000000000000000000000000000815260040160405180910390fd5b600260008373ffffffffffffffffffffffffffffffffffffffff1673ffffffffffffffffffffffffffffffffffffffff168152602001908152602001600020604051806040016040529081600082018054610838906111e2565b80601f0160208091040260200160405190810160405280929190818152602001828054610864906111e2565b80156108b15780601f10610886576101008083540402835291602001916108b1565b820191906000526020600020905b81548152906001019060200180831161089457829003601f168201915b505050505081526020016001820180546108ca906111e2565b80601f01602080910402602001604051908101604052809291908181526020018280546108f6906111e2565b80156109435780601f1061091857610100808354040283529160200191610943565b820191906000526020600020905b81548152906001019060200180831161092657829003601f168201915b5050505050815250509050919050565b6109a082828080601f016020809104026020016040519081016040528093929190818152602001838380828437600081840152601f19601f82011690508083019250505050505050610ab2565b156109d7576040517fdde6f24c00000000000000000000000000000000000000000000000000000000815260040160405180910390fd5b8181600160008060008154809291906109ef90611614565b9190505581526020019081526020016000209182610a0e9291906114b1565b505050565b610aad838383604051602401610a2b939291906116b1565b6040516020818303038152906040527f1c7ec448000000000000000000000000000000000000000000000000000000007bffffffffffffffffffffffffffffffffffffffffffffffffffffffff19166020820180517bffffffffffffffffffffffffffffffffffffffffffffffffffffffff8381831617835250505050610b2f565b505050565b600080600090505b8251811015610b2457600060f81b838281518110610adb57610ada611213565b5b602001015160f81c60f81b7effffffffffffffffffffffffffffffffffffffffffffffffffffffffffffff191614610b17576000915050610b2a565b8080600101915050610aba565b50600190505b919050565b610b4681610b3e610b49610b6a565b63ffffffff16565b50565b60006a636f6e736f6c652e6c6f679050600080835160208501845afa505050565b610b8f819050919050565b604051806040016040528060608152602001606081525090565b610b976116ef565b565b600080fd5b600080fd5b600080fd5b600080fd5b600080fd5b60008083601f840112610bc857610bc7610ba3565b5b8235905067ffffffffffffffff811115610be557610be4610ba8565b5b602083019150836001820283011115610c0157610c00610bad565b5b9250929050565b600073ffffffffffffffffffffffffffffffffffffffff82169050919050565b6000610c3382610c08565b9050919050565b610c4381610c28565b8114610c4e57600080fd5b50565b600081359050610c6081610c3a565b92915050565b6000819050919050565b610c7981610c66565b8114610c8457600080fd5b50565b600081359050610c9681610c70565b92915050565b600080600080600060808688031215610cb857610cb7610b99565b5b600086013567ffffffffffffffff811115610cd657610cd5610b9e565b5b610ce288828901610bb2565b95509550506020610cf588828901610c51565b9350506040610d0688828901610c51565b9250506060610d1788828901610c87565b9150509295509295909350565b600081519050919050565b600082825260208201905092915050565b6000819050602082019050919050565b600081519050919050565b600082825260208201905092915050565b60005b83811015610d8a578082015181840152602081019050610d6f565b60008484015250505050565b6000601f19601f8301169050919050565b6000610db282610d50565b610dbc8185610d5b565b9350610dcc818560208601610d6c565b610dd581610d96565b840191505092915050565b6000610dec8383610da7565b905092915050565b6000602082019050919050565b6000610e0c82610d24565b610e168185610d2f565b935083602082028501610e2885610d40565b8060005b85811015610e645784840389528151610e458582610de0565b9450610e5083610df4565b925060208a01995050600181019050610e2c565b50829750879550505050505092915050565b60006020820190508181036000830152610e908184610e01565b905092915050565b6000610ea382610c08565b9050919050565b610eb381610e98565b8114610ebe57600080fd5b50565b600081359050610ed081610eaa565b92915050565b600080600060408486031215610eef57610eee610b99565b5b600084013567ffffffffffffffff811115610f0d57610f0c610b9e565b5b610f1986828701610bb2565b93509350506020610f2c86828701610ec1565b9150509250925092565b600080fd5b600060408284031215610f5157610f50610f36565b5b81905092915050565b600060208284031215610f7057610f6f610b99565b5b600082013567ffffffffffffffff811115610f8e57610f8d610b9e565b5b610f9a84828501610f3b565b91505092915050565b600060208284031215610fb957610fb8610b99565b5b6000610fc784828501610c51565b91505092915050565b60006040830160008301518482036000860152610fed8282610da7565b915050602083015184820360208601526110078282610da7565b9150508091505092915050565b6000602082019050818103600083015261102e8184610fd0565b905092915050565b61103f81610c28565b82525050565b600060408201905061105a6000830185611036565b6110676020830184611036565b9392505050565b60008151905061107d81610c70565b92915050565b60006020828403121561109957611098610b99565b5b60006110a78482850161106e565b91505092915050565b6110b981610c66565b82525050565b60006060820190506110d46000830186611036565b6110e16020830185611036565b6110ee60408301846110b0565b949350505050565b60008115159050919050565b61110b816110f6565b811461111657600080fd5b50565b60008151905061112881611102565b92915050565b60006020828403121561114457611143610b99565b5b600061115284828501611119565b91505092915050565b60006040820190506111706000830185611036565b61117d60208301846110b0565b9392505050565b7f4e487b7100000000000000000000000000000000000000000000000000000000600052604160045260246000fd5b7f4e487b7100000000000000000000000000000000000000000000000000000000600052602260045260246000fd5b600060028204905060018216806111fa57607f821691505b60208210810361120d5761120c6111b3565b5b50919050565b7f4e487b7100000000000000000000000000000000000000000000000000000000600052603260045260246000fd5b600081905092915050565b50565b600061125d600083611242565b91506112688261124d565b600082019050919050565b600061127e82611250565b9150819050919050565b600080fd5b600080fd5b600080fd5b600080833560016020038436030381126112b4576112b3611288565b5b80840192508235915067ffffffffffffffff8211156112d6576112d561128d565b5b6020830192506001820236038313156112f2576112f1611292565b5b509250929050565b600082905092915050565b60008190508160005260206000209050919050565b60006020601f8301049050919050565b600082821b905092915050565b6000600883026113677fffffffffffffffffffffffffffffffffffffffffffffffffffffffffffffffff8261132a565b611371868361132a565b95508019841693508086168417925050509392505050565b6000819050919050565b60006113ae6113a96113a484610c66565b611389565b610c66565b9050919050565b6000819050919050565b6113c883611393565b6113dc6113d4826113b5565b848454611337565b825550505050565b600090565b6113f16113e4565b6113fc8184846113bf565b505050565b5b81811015611420576114156000826113e9565b600181019050611402565b5050565b601f8211156114655761143681611305565b61143f8461131a565b8101602085101561144e578190505b61146261145a8561131a565b830182611401565b50505b505050565b600082821c905092915050565b60006114886000198460080261146a565b1980831691505092915050565b60006114a18383611477565b9150826002028217905092915050565b6114bb83836112fa565b67ffffffffffffffff8111156114d4576114d3611184565b5b6114de82546111e2565b6114e9828285611424565b6000601f8311600181146115185760008415611506578287013590505b6115108582611495565b865550611578565b601f19841661152686611305565b60005b8281101561154e57848901358255600182019150602085019450602081019050611529565b8683101561156b5784890135611567601f891682611477565b8355505b6001600288020188555050505b50505050505050565b61158c8383836114b1565b505050565b60008101600083016115a38185611297565b6115ae818386611581565b5050505060018101602083016115c48185611297565b6115cf818386611581565b505050505050565b6115e18282611591565b5050565b7f4e487b7100000000000000000000000000000000000000000000000000000000600052601160045260246000fd5b600061161f82610c66565b91507fffffffffffffffffffffffffffffffffffffffffffffffffffffffffffffffff8203611651576116506115e5565b5b600182019050919050565b600081519050919050565b600082825260208201905092915050565b60006116838261165c565b61168d8185611667565b935061169d818560208601610d6c565b6116a681610d96565b840191505092915050565b600060608201905081810360008301526116cb8186611678565b90506116da60208301856110b0565b6116e76040830184611036565b949350505050565b7f4e487b7100000000000000000000000000000000000000000000000000000000600052605160045260246000fdfe53656e742025642077656920746f20737465616c7468206164647265737320257353656e7420256420746f6b656e7320746f20737465616c74682061646472657373202573a2646970667358221220bee5a8945ad72857871bd58469e2b3d0ff1da5526cfe7fd7513a1fe93e787a9f64736f6c634300081a0033",
  "linkReferences": {},
  "deployedLinkReferences": {}
}